:1000000000308A009A290000FF00030E8301A1003E
:100010000A08A0008A010408A2007708A300780853
:10002000A4007908A5007A08A6007B08A70083131E
:1000300083128B1E1D280B193028220884002308E8
:10004000F7002408F8002508F9002608FA00270818
:10005000FB0020088A00210E8300FF0E7F0E09009E
:100060008A110A124228560DF700F70DF70DF830E5
:10007000F7051F08C73977049F002130F700F70BF9
:100080003F2800345E3081000230D60033201F1537
:100090001F1948281E08CE004E08D600D801D901E5
:1000A000D7015708063C031C6B282A305707F80075
:1000B000FA010318FA0A013057072A3E8400831315
:1000C0000008DD007808840083137A1883175D0820
:1000D0008000D70A51285608B100D7015708073CBD
:1000E000031C7C282A305707840083130008D80794
:1000F0000318D90AD70A6E28D90CD80CD90CD80CF9
:10010000D90CD80C1F30D9055808F8007808CA0057
:100110000330D60033201F151F198C281E08CF006E
:100120004F08D600D801D901D7015708063C031C57
:10013000AF2832305707F800FA010318FA0A0130E5
:100140005707323E840083130008DD0078088400DE
:1001500083137A1883175D088000D70A95285608FC
:10016000B900D7015708073C031CC0283230570795
:10017000840083130008D8070318D90AD70AB228C5
:10018000D90CD80CD90CD80CD90CD80C1F30D905E7
:100190005808F8007808CB000130D60033201F152E
:1001A0001F19D0281E08D0005008D600D801D90148
:1001B000D7015708063C031CF3283A305707F800CC
:1001C000FA010318FA0A013057073A3E84008313F4
:1001D0000008DD007808840083137A1883175D080F
:1001E0008000D70AD9285608C100D7015708073C14
:1001F000031C04293A305707840083130008D807EA
:100200000318D90AD70AF628D90CD80CD90CD80C5F
:10021000D90CD80C1F30D9055808F8007808CC0044
:100220005008CC00D60133201F151F1915291E08B0
:10023000D1005108D600D801D901D7015708063C92
:10024000031C382942305707F800FA010318FA0A4C
:1002500001305707423E840083130008DD00780810
:10026000840083137A1883175D088000D70A1E293B
:100270005608C900D7015708073C031C49294230DA
:100280005707840083130008D8070318D90AD70A30
:100290003B29D90CD80CD90CD80CD90CD80C1F3050
:1002A000D9055808F8007808CD005108CD004A0F4C
:1002B0005B29FD30CA004B0F5F29FD30CB004C0F8E
:1002C0006329FD30CC004D0F6729FD30CD00FF3094
:1002D0000C1E682999004A080C1E6C2999004B08CD
:1002E0000C1E702999004C080C1E742999004D08A9
:1002F0000C1E782999001030F700F70B7D290000BB
:100300000130A9000B118A110A121D2855308400F2
:1003100083130008031999290630F800F701F70B39
:100320008F29F80B8E297B30F700F70B9529800B6E
:100330008C290034840183131F3083050A3083160F
:100340009900A630980090308312980083161F14ED
:100350009F141F159F1107309C008312A801A9014B
:10036000AA01AB01AC01AD01AE01AF01B001B10119
:10037000B201B301B401B501B601B701B801B901C9
:10038000BA01BB01BC01BD01BE01BF01C001C10179
:10039000C201C301C401C501C601C701C801C90129
:1003A0000A30CA00CB00CC00CD00CE00CF00D00078
:1003B000D100FF30D200D30131300C1EDD2999006D
:1003C0000230D400C830D5008621D40BE229323067
:1003D0000C1EE82999000230D400C830D5008621CF
:0803E000D40BED29DC296300B8
:02400E00723FFF
:00000001FF
;PIC16F877A
